:020000040800F2
:100000002007002039020008AF1300085B10000829
:10001000AD130008750400089515000800000000E5
:10002000000000000000000000000000ED140008C7
:100030007704000800000000B1130008EF14000866
:10004000530200085302000853020008530200083C
:10005000530200085302000853020008530200082C
:10006000530200085302000853020008530200081C
:10007000530200085302000853020008530200080C
:100080005302000853020008530200080000000059
:100090000000000000000000000000005302000803
:1000A00053020008530200085302000853020008DC
:1000B00053020008530200085302000853020008CC
:1000C00053020008530200085302000853020008BC
:1000D0005302000853020008530200080000000009
:1000E00053020008530200085302000800000000F9
:1000F00000000000000000000000000053020008A3
:1001000000000000530200085302000853020008D8
:1001100000000000000000000000000000000000DF
:10012000530200085302000853020008530200085B
:100130005302000800000000000000000000000062
:100140000000000000000000000000005302000852
:10015000530200085302000853020008530200082B
:1001600053020008530200080000000000000000D5
:10017000000000000000000000000000000000007F
:100180000000000053020008000000000000000012
:10019000530200085302000800F002F800F03CF897
:1001A0000AA090E8000C82448344AAF10107DA45D2
:1001B00001D100F031F8AFF2090EBAE80F0013F0E8
:1001C000010F18BFFB1A43F0010318475014000039
:1001D00070140000103A24BF78C878C1FAD85207CA
:1001E00024BF30C830C144BF04680C6070470000B1
:1001F0000023002400250026103A28BF78C1FBD830
:10020000520728BF30C148BF0B6070471FB501F0CF
:10021000F7F91FBD10B510BD00F0CFF81146FFF77C
:10022000F5FF01F0C9F900F0EDF803B4FFF7F2FFB4
:1002300003BC00F0F5F80000094880470948004772
:10024000FEE7FEE7FEE7FEE7FEE7FEE7FEE7FEE786
:10025000FEE7FEE704480549054A064B70470000E3
:1002600085150008990100082001002020070020C2
:10027000200300202003002053EA020C00F06980D4
:100280002DE9F04B4FF00006002B1FBFB3FA83F5AA
:1002900003FA05F424FA05F65E4012BF1643B2FADB
:1002A00082F502FA05F4C5F120051EBF22FA05FC0D
:1002B00044EA0C04203556EA044C4FEA144418BFB3
:1002C000641C4FF000084FF00009904271EB030CE2
:1002D00039D3002919BFB1FA81F701FA07F6B0FA4C
:1002E00080F700FA07F6C7F120071EBF20FA07FCC7
:1002F00046EA0C062037B6FBF4FCA7EB0507103FD7
:1003000007F01F0BCBF120060CFA0BFB2CFA06F6BC
:1003100044BFB3460026202FA4BF5E464FF0000B1B
:100320005BEA060C08BF4FF0010B19EB0B09ABFBA6
:10033000027C48EB0608C01B06FB02CC0BFB03CC7F
:1003400071EB0C01C1E70B46024641464846BDE849
:10035000F08B13B54FF000004FF00001AFF30080B9
:10036000BDE81C4070474FF0000200B513469446AC
:100370009646203922BFA0E80C50A0E80C50B1F1FD
:100380002001BFF4F7AF090728BFA0E80C5048BF11
:100390000CC05DF804EB890028BF40F8042B08BFAF
:1003A000704748BF20F8022B11F0804F18BF00F8AB
:1003B000012B7047704770477047754600F02CF866
:1003C000AE4605006946534620F00700854618B042
:1003D00020B5FFF73FFFBDE820404FF000064FF08B
:1003E00000074FF000084FF0000B21F00701AC466A
:1003F000ACE8C009ACE8C009ACE8C009ACE8C00989
:100400008D46704710B50446AFF300802046BDE826
:100410001040FFF70ABF000000487047BC000020F2
:1004200001491820ABBEFEE726000200704700001D
:1004300070B50E4C01250026A0688047D42803D053
:10044000A0688047D5280ED1094D41F23F002C61AC
:10045000216888472869816A304688472869C16AC7
:10046000102088470025284670BD000000000020AD
:1004700034000020FEE7704772B6FEE770470000C8
:100480002DE9F04114460546012A02D941F0C00683
:1004900001E041F080060D4F00220821384600F0AF
:1004A0002BF9304601F00EF806E0002001F00AF8C2
:1004B000641E05F8010BA4B2002CF6D13846BDE845
:1004C000F0410122082100F017B90000001002409D
:1004D0002DE9F041144605460E46012A01D941F0A6
:1004E00048060C4F00220821384600F005F9304636
:1004F00000F0E8FF05E0287800F0E4FF641EA4B2F5
:100500006D1C002CF7D13846BDE8F04101220821CE
:1005100000F0F2B8001002402DE9F84FDFF8B8A162
:100520000022012403254FF00F090AF1040BAAF160
:10053000040E00BF0B6804FA02F63340B34273D1D5
:100540000F7907F00307012F01D0022F16D187681A
:100550004FEA420805FA08FC27EA0C07D1F80CC05C
:100560000CFA08FC4CEA070CC0F808C04768B7430F
:100570000E79C6F3001696403E4346600E79F64368
:10058000B6070DD0C768560005FA06FC27EA0C0727
:10059000D1F808C00CFA06FC4CEA070CC0F80CC0F5
:1005A0000E7906F00306022E10D1D60800EB86085D
:1005B000D8F8206057074FEAD76C09FA0CF7BE430A
:1005C0000F6907FA0CF73743C8F8207006684FEA3E
:1005D000420C05FA0CF7BE430F7907F0030707FA40
:1005E0000CF7374307604E6816F4403F6DD03B4E22
:1005F000376847F480473760366822F0030706F40F
:1006000080460096364E07EB060CDCF80868970724
:100610003F0F09FA07F826EA0806DFF8C8804045C8
:1006200003D14FF000081EE04FE0DFF8BC804045EA
:1006300002D14FF0010816E0DFF8B080404502D14A
:100640004FF002080FE0DFF8A880404502D14FF0DC
:10065000030808E0DFF89C80404502D14FF0040811
:1006600001E04FF0070808FA07F848EA0608CCF856
:100670000888DAF800605746D1F804C09E435FEA64
:10068000CC2C00D51E433E60DBF800605F46D1F8FD
:1006900004C09E435FEA8C2C00D51E433E60DEF80A
:1006A00000607746D1F804C09E435FEA8C3C00D5D9
:1006B0001E433E60084F083F3E68D1F804C09E4389
:1006C0005FEACC3C00D51E433E60521C102AFFF46A
:1006D00031AFBDE8F88F0000083C014044380240CB
:1006E00000300140000002400004024000080240C7
:1006F000000C0240001002400AB1816170470904F9
:10070000FBE70000014880687047000048000020B7
:1007100002488168027811448160704748000020D7
:100720000B4810B5016841F400710160016841F4A3
:1007300080610160016841F480710160032000F074
:1007400061F80F2000F006F800F024F8002010BD3A
:10075000003C024070B50D4D04464FF47A71287884
:10076000B1FBF0F00A490968B1FBF0F000F061FC60
:1007700048B9102C07D200222146501E00F022F862
:1007800000206C6070BD012070BD0000480000209A
:10079000540000200A4808B5016841F48041016016
:1007A000006800F4804000900548001F016841F097
:1007B00080510160006800F08050009008BD00008A
:1007C00044380240F0B40E4B1B680C46C3F30223BE
:1007D000C3F10705042D00D90425191D072901D2ED
:1007E000002300E0DB1E012606FA05F1491E214028
:1007F00099409E40761E16403143F0BC00F0CBBEBF
:100800000CED00E0064900F0070208684FF6FF0310
:10081000184040EA0220034A104308607047000075
:100820000CED00E00000FA052DE9F0470E4605004A
:1008300065D0DFF81481D8F80000F7B200F00700A7
:10084000B04207D288F80070D8F8000000F0070026
:10085000B04254D128683D4C810712D5400703D5DA
:10086000206840F4E05020602878000703D5206815
:1008700040F4604020602068A96820F0F000084340
:1008800020602878C0072DD03049686808390128D1
:1008900012D0022813D0032811D009688907002933
:1008A0002DDA216821F0030101432160FFF72AFFBF
:1008B000814641F2883A0EE009688903EFE709684A
:1008C0008901ECE7FFF71EFFA0EB0901514502D9B2
:1008D0000320BDE8F0872068696800F00C00B0EBE9
:1008E000810FEFD1D8F80010404601F00701B14266
:1008F00007D90770006800F00700B04201D001205E
:10090000E7E72878400705D52068E96820F4E0503B
:10091000084320602878000706D52068296920F45C
:10092000604040EAC100206000F018F82168084AE1
:10093000C1F30311515CC8400649086006480068CD
:10094000FFF708FF0020C4E7003C024008380240DF
:100950000A160008540000204C000020154810B56D
:10096000006810F00C02144813D01449042A0FD068
:10097000082A0ED10F4C241F2268236802F03F0280
:100980005B0207D52068C0F38810A0FB010106E0D8
:10099000084610BD2168C1F38811A1FB00010023A6
:1009A000FFF76AFC2168C1F30141491C4900B0FB13
:1009B000F1F010BD083802400024F40040787D01B9
:1009C0002DE9F84F04006ED02078DFF84C93C00773
:1009D000A9F104054AD009F104000168C1F38101BD
:1009E000012908D00068C0F3810002280AD1D9F893
:1009F0000000400206D52868800337D560680028CB
:100A0000E1D033E06068B0F5803F10D0B0F5A02FA2
:100A1000286810D020F480302860286820F48020D6
:100A200028606068A8B1FFF76DFE06460DE02868F3
:100A300040F48030F4E740F480202860F7E700BFFE
:100A4000FFF760FE801B642873D828688003F7D501
:100A50000CE0FFF757FE064605E000BFFFF752FE29
:100A6000801B6428F0D828688003F7D42078DFF84A
:100A7000AC8280074FF0000A3ED5A748001D0168F0
:100A800011F00C0F08D00068C0F3810002280BD1D0
:100A9000D9F80000400207D42868800716D5E0681E
:100AA000012800D112E033E1E068B8B10120C8F8B4
:100AB0000000FFF727FE064605E000BFFFF722FE15
:100AC000801B0228C0D828688007F7D528682169CC
:100AD00020F0F80040EAC10028600DE0C8F800A04E
:100AE000FFF710FE064604E0FFF70CFE801B02280D
:100AF0001FD828688007F7D42078000722D5864FB2
:100B000087486169703771B101210160FFF7FAFD13
:100B1000064604E0FFF7F6FD801B022809D8386876
:100B20008007F7D50EE0C0F800A0FFF7EBFD064602
:100B300005E082E0FFF7E6FD801B02287DD83868DB
:100B40008007F7D42078400768D5DFF8CCB10027BC
:100B50000BF13C0BDBF80000C0000BD4DBF80010FD
:100B600041F08051CBF80010DBF80000012700F0C5
:100B7000805000906B4E3068C00510D4306840F44F
:100B800080703060FFF7BEFD009005E0FFF7BAFD12
:100B90000099401A022850D83068C005F6D55E4E3C
:100BA000A0686C3601280FD00528306810D020F0DE
:100BB00001003060306820F004003060A068B8B1F7
:100BC000FFF7A0FD00900FE0306840F00100F4E76F
:100BD00040F004003060F7E7FFF794FD0099411AF8
:100BE00041F28830814266D830688007F4D50EE043
:100BF000FFF788FD009007E0FFF784FD0099411A98
:100C000041F28830814256D830688007F4D42FB141
:100C1000DBF8001021F08051CBF80010A069C8B3B8
:100C20003D49091D0968C1F3810102294AD0022802
:100C3000504607D0C8F8600000E03CE0FFF762FDD6
:100C400004463BE04746C8F86000FFF75BFD0646F8
:100C500005E000BFFFF756FD801B02282BD828684F
:100C60008001F7D4D4E907010843A16A2E4A490854
:100C700002EB0141626A41EA8211084394F82C10A8
:100C800040EA0161C9F8001001203866FFF73AFD1B
:100C9000044606E03EE000BFFFF734FD001B0228DB
:100CA00009D828688001F7D534E000BFFFF72AFD96
:100CB000001B022802D90320BDE8F88F28688001B4
:100CC000F4D427E00128F7D0D9F80000E26900F455
:100CD000800191421CD1226A00F03F01914217D15C
:100CE00047F6C071626A0140B1EB821F10D1A26A5F
:100CF0004FF0FF3300F4403103EB5202B1EB024FEF
:100D000006D194F82C1000F07060B0EB016F01D0A8
:100D10000120D1E70020CFE704380240000047421D
:100D2000800E4742007000400000FFFF70B50400D5
:100D300009D0606A002540B125616561A56294F81B
:100D4000510040B10CE0012070BD6068B0F5827FB9
:100D5000F4D0E561F2E784F85050204600F044F802
:100D6000022084F851002068016821F040010160F0
:100D7000A088218900F4827001F404410843A1890C
:100D800001F400610843217C01F002010843217D48
:100D900001F001010843218B01F400710843217F18
:100DA00001F03801084394F8201001F08001084355
:100DB000218D01F40051084321680860A0690421D5
:100DC00001EA104094F8241001F010010843216852
:100DD00048602068C16921F40061C1616565012036
:100DE00084F85100002070BD10B586B0044614216F
:100DF0006846FFF7B8FA13492068884220D11248A4
:100E00000021026842F480520260006800F48050C1
:100E100005900D481438026842F001020260006833
:100E200000F001000590E02000900220CDE90101D2
:100E3000032003900520049069460448FFF76CFBEB
:100E400006B010BD003001404438024000000240AE
:100E50002DE9F84F044690F8500000270A9E1D46E1
:100E600092468B464FF0010901280ED0012084F8EC
:100E70005000FFF747FC804694F851006168012854
:100E80000CD0B1F5827F07D102E00220BDE8F88FD7
:100E9000A16809B9042801D00227C2E0BBF1000F04
:100EA00027D0BAF1000F24D01DB394F851000428C4
:100EB00002D0052084F8510000206065C4F838A0F5
:100EC000E587A587C4F830B0E586A5862064606410
:100ED00020680168490603D4016841F040010160BF
:100EE000E068B0F5006F606805D0E8B3012D46D02A
:100EF0007FE0012795E008B1012D39D1206B2168F1
:100F00000088C860206B801C2063E08E401EE08655
:100F10002EE02068816889070FD5E18E69B1B9F1AB
:100F2000010F0AD1216B0988C160206B801C2063EE
:100F3000E08E401EE0864FF0000920688168C907F6
:100F40000CD0E18F51B1C068A16B0880A06B801CF0
:100F5000A063E08F401EE0874FF00109FFF7D2FB4E
:100F6000A0EB0800B04200E009E001D3701C50D1B2
:100F7000E08E0028CDD1E08F0028CAD13FE0206B61
:100F8000216800780873206B401C2063E08E401EAF
:100F9000E0862EE02068816889070FD5E18E69B16F
:100FA000B9F1010F0AD1216B09780173206B401C44
:100FB0002063E08E401EE0864FF0000920688168C3
:100FC000C9070CD0E18F51B1C068A16B0870A06B4C
:100FD000401CA063E08F401EE0874FF00109FFF73F
:100FE00091FBA0EB0800B04202D3701C01D010E0CE
:100FF0007EB1E08E0028CDD1E08F0028CAD14246D4
:101000003146204600F0D6F928B10127202060653E
:1010100007E0032705E0A06818B92068C168806868
:101020000090012084F85100002084F850003846D8
:101030002CE710B5401EB0F1807F01D3012010BD18
:101040004FF0E02460610F21601700F0A4FA002047
:10105000A06107202061002010BDFEE7704738B571
:101060000446012222216846FFF70AFA14B1012C36
:1010700005D00AE09DF8000000F07F0003E09DF835
:10108000000000F0F7008DF80000012222216846E0
:10109000FFF71EFA38BD38B5044601222221684602
:1010A000FFF7EEF914B1012C07D00EE09DF8000017
:1010B00000F07F0040F0800005E09DF8000000F0A7
:1010C000F70040F008008DF8000001222221684658
:1010D000FFF7FEF938BD38B50446012224216846E1
:1010E000FFF7CEF99DF80000012200F0EF00204349
:1010F0008DF8000024216846FFF7EAF938BD38B5BD
:101100000446012221216846FFF7BAF99DF8000044
:10111000012200F0C00020438DF800002121684624
:10112000FFF7D6F938BD1CB5044600208DF8000045
:101130008DF80400012230216846FFF7A1F9012251
:10114000222101A8FFF79CF99DF80000012200F080
:1011500080008DF800009DF80400302100F0DF00D1
:1011600004438DF804406846FFF7B2F901222221BA
:1011700001A8FFF7ADF91CBD38B5044600208DF875
:101180000000FFF77BF98DF800400122202168461E
:10119000FFF79EF9200A8DF80000012223216846FE
:1011A000FFF796F938BD08B501228DF8000020211F
:1011B0006846FFF78DF908BD08B5FFF75FF9012212
:1011C0000F216846FFF75CF99DF8000008BD00009C
:1011D00070B505462DED028B86B000200090019081
:1011E000029003908DF8100004469FED288A01229A
:1011F000232104A8FFF744F9062228216846FFF7B7
:101200003FF99DF8101068464B0602AA0DD400BFA6
:1012100000EB440610F81430767803EB062322F82E
:101220001430641C032CF3DB0BE000EB440310F8D8
:1012300014605B7803EB062322F81430641C032C43
:10124000F3DB11F0300004D0102805D0202808D19D
:1012500005E09FED0F8A04E09FED0E8A01E09FED0F
:101260000E8A002132F9110000EE100A05EB810010
:10127000491CB8EEC00A032920EE080A80ED000AD6
:10128000F0DB06B0BDEC028B70BD0000000000007A
:1012900000000C4100008C4100008C4208B5012286
:1012A00024216846FFF7ECF89DF80000012240F089
:1012B00080008DF8000024216846FFF709F908BD79
:1012C0002DE9F04186B014216846FFF74CF8234819
:1012D0000024016841F010010160016801F0100173
:1012E0000591016841F080010160016801F0800111
:1012F0000591016841F001010160016801F00101FF
:101300000591016841F0080101600068144F00F088
:1013100008000590012208213846FFF7EDF9DFF8B3
:1013200044804FF47046002231464046FFF7E4F90E
:10133000082000900125CDE9015469463846039400
:10134000FFF7EAF80096CDE9015469464046039458
:10135000FFF7E2F806B0BDE8F08100003038024047
:1013600000100240000C02400F4810B50D4901600A
:101370004FF482714160002181600122C160C0E9A7
:1013800004125202C0E906210162416281620A210F
:10139000C162FFF7CBFC002803D0BDE81040FFF787
:1013A0006BB810BD0030014064000020FEE7FEE78E
:1013B0007047000038B504461248134B0068B0FB74
:1013C000F3F04FF47A73584300906068B0F5827F71
:1013D0000DD10B46009200228021204600F016F825
:1013E00070B1606D40F020006065032038BD00984A
:1013F00030B1401E009020688068C0430006F6D5DA
:10140000002038BD5400002000366E012DE9F8435D
:101410001E46914688460446089DFFF773F9401B17
:10142000351AFFF76FF9074625480068C0F3CB303F
:10143000684338E0701C37D0FFF764F9C01BA8423E
:1014400003D215B1009860B32CE02068416821F008
:10145000E00141606068B0F5827F0BD1A068B0F513
:10146000004F02D0B0F5806F04D12068016821F0F0
:1014700040010160A06AB0F5005F09D120680168F1
:1014800021F4005101602068016841F400510160BD
:10149000012084F85100002084F850000320BDE8AA
:1014A000F8830025401E00902068816838EA01001A
:1014B00004D000214945BDD10020F0E70121F9E722
:1014C0005400002001B582B000208DF804004FF4D4
:1014D00080500090012301AA02A90348FFF7B8FC3D
:1014E0009DF804000EBD0000640000207047FFF767
:1014F0000FB9000030B593B030216846FEF733FFD6
:1015000014210CA8FEF72FFF1C480024016841F0AD
:1015100080510160006800F0805011901848016807
:1015200041F4404101600068022500F44040119000
:101530000120039010200490009506950820CDE925
:1015400007406420CDE9090504200B906846FFF7A9
:1015500037FA08B172B6FEE70F20CDE90C054FF45B
:101560008050CDE90E4003210CA81094FFF75CF9E0
:10157000002801D072B6FEE713B030BD40380240FB
:10158000007000400248016841F47001016070473A
:1015900088ED00E0FEE70907090E002804DB00F1F2
:1015A000E02080F80014704700F00F0000F1E02008
:1015B00080F8141D70470000FFF7B2F8FFF79AFF9C
:1015C000FFF77EFEFFF7D0FEFEF732FFFFF7F4FDD8
:1015D000094D0A4C28700948FFF7FAFD94ED000AFE
:1015E00085ED010A94ED010A85ED020A94ED020AE7
:1015F00085ED030AEFE700003400002058000020CA
:101600004FF04070E1EE100A70470000000000004B
:101610000000010203040607080900003C16000848
:101620000000002058000000D401000894160008B3
:1016300058000020C8060000F001000879110008D9
:101640005D100008B91100089D120008A7110008DC
:1016500027110008971000085F1000080000000024
:1016600000000000FF100008D7100008D11100088A
:10167000000000000000000000000000000000006A
:101680000000000001000000100000000000000049
:041690000024F4003E
:040000050800019955
:00000001FF
